:020000040800F2
:100000007809002005010008BD270008BF27000867
:10001000C7270008CB270008CF27000800000000F2
:10002000000000000000000000000000D3270008CE
:10003000D527000800000000D7270008D9270008AE
:100040001F0100081F0100081F010008D728000831
:100050001F0100081F0100081F0100081F01000800
:100060001F0100081F0100081F0100081F010008F0
:100070001F0100081F0100081F0100081F010008E0
:100080001F0100081F0100081F0100081F010008D0
:100090001F0100081F0100081F010008E9280008CF
:1000A0001F0100081F0100081F0100081F010008B0
:1000B0001F0100088D2800081F0100081F0100080B
:1000C0001F0100081F0100081F0100081F01000890
:1000D0001F010008E32700081B2800085528000816
:1000E0001F0100081F0100081F010008DFF80CD0E5
:1000F00004F044F800480047752100087809002002
:10010000704700000648804706480047FEE7FEE7C4
:10011000FEE7FEE7FEE7FEE7FEE7FEE7FEE7FEE7B7
:1001200007020008ED0000080CB5002001900090C7
:100130006C48006840F480306A49086000BF694834
:10014000006800F4003000900198401C0190009875
:1001500018B90198B0F5A06FF1D16248006800F4B9
:10016000003010B10120009001E0002000900098C4
:10017000012843D15C48006840F010005A490860EB
:100180000846006820F0030008600846006840F058
:100190000200086053484068524948600846406879
:1001A00048600846406840F48060486008464068FF
:1001B00020F47C1048600846406840F4E81048602D
:1001C0000846006840F08070086000BF454800683D
:1001D00000F000700028F9D04248406820F0030089
:1001E000404948600846406840F00200486000BF4F
:1001F0003C48406800F00C000828F9D10CBD10B54F
:10020000FFF792FF10BD10B53648006840F00100BE
:10021000344908600846406834490840314948601C
:1002200008460068324908402E49086008460068C0
:1002300020F4802008600846406820F4FE004860F2
:100240004FF41F008860FFF7DAFF4FF00060294984
:10025000086010BD10B5002100200022214B5B6812
:1002600003F00C0121B1042906D0082928D107E0A8
:10027000214B224C236027E01F4B204C236023E0BE
:10028000184B5B6803F47010164B5B6803F4803204
:10029000022303EB904022B9194B4343174C2360D0
:1002A0000DE0104B5B6803F4003323B1144B434360
:1002B000124C236003E0104B4343104C236003E0D7
:1002C0000D4B0E4C236000BF00BF064B5B68C3F3B1
:1002D00003130C4CE15C094B1B68CB40074C2360BB
:1002E00010BD000000100240002002400000FFF896
:1002F000FFFFF6FE08ED00E000127A00000000208B
:1003000000093D000400002031490143314A1160D9
:10031000704770B5002100230F22C47804B32D4C20
:10032000246804F4E064C4F5E064210AC1F1040324
:10033000CA40447804FA03F1847814402143090147
:10034000254C0678A155047804F01F050124AC4023
:1003500005786D11AD0005F1E025C5F8004109E013
:10036000047804F01F050124AC401C4D067876117A
:1003700045F8264070BD1A4A0A400243154B1B1F20
:100380001A60704739B1134A121D12680243114BAB
:100390001B1D1A6006E00F4A121D126882430D4BA6
:1003A0001B1D1A607047042808D14FF0E02109692D
:1003B00041F004014FF0E022116107E04FF0E0212D
:1003C000096921F004014FF0E0221161704700003B
:1003D0000000FA050CED00E000E400E080E100E040
:1003E00080FFFF1F002044490860091D0860091DA7
:1003F0000860091D086041483F4914310860704792
:1004000000213D498279002A3AD00A4612680368E1
:100410009A430B461A600A1D126803689A430B1D23
:100420001A60027911440A6803681A430A60324A62
:100430000832126803689A432F4B08331A601A1D5A
:10044000126803689A432C4B0C331A604279102AC5
:100450000ED11A1F126803681A43274B08331A601B
:100460001A1D126803681A43234B0C331A600DE0FF
:100470002149427911440A6803681A430A6005E079
:10048000027911440A6803689A430A6070470021A0
:10049000016001710C214171002181717047164981
:1004A000103109680143144A103211607047014647
:1004B0000020114A143212680A400AB1012000E0FB
:1004C000002070470C491431086070470146002035
:1004D0000022094B1B6803EA0102074B14331B6817
:1004E0000B4013B10AB1012000E00020704702491F
:1004F000143108607047000000040140FFFF0F0046
:1005000010B50446CC48844208D10121042000F0F3
:100510002DFB0021042000F029FB46E0C74884425F
:1005200008D10121082000F021FB0021082000F063
:100530001DFB3AE0C248844208D10121102000F09E
:1005400015FB0021102000F011FB2EE0BD48844275
:1005500008D10121202000F009FB0021202000F01B
:1005600005FB22E0B848844208D10121402000F078
:10057000FDFA0021402000F0F9FA16E0B348844269
:1005800008D10121802000F0F1FA0021802000F044
:10059000EDFA0AE0AE48844207D10121801500F04F
:1005A000E5FA0021A01500F0E1FA10BD10B5012117
:1005B000084600F0DBFA0021012000F0D7FA10BD58
:1005C0002DE9F041024600250026002000230024EA
:1005D000002791F803C00CF00F0591F803C00CF050
:1005E000100CBCF1000F03D091F802C04CEA0505D5
:1005F00091F800C0BCF1000F31D0146800202BE04E
:100600004FF0010C0CFA00F3B1F800C00CEA03063D
:100610009E4220D183004FF00F0C0CFA03F7BC432D
:1006200005FA03FC4CEA040491F803C0BCF1280F5E
:1006300006D14FF0010C0CFA00FCC2F814C00AE01D
:1006400091F803C0BCF1480F05D14FF0010C0CFA32
:1006500000FCC2F810C0401C0828D1D31460B1F8C7
:1006600000C0BCF1FF0F34DD546800202EE000F123
:10067000080C4FF0010808FA0CF3B1F800C00CEABE
:1006800003069E4221D183004FF00F0C0CFA03F7B2
:10069000BC4305FA03FC4CEA040491F803C0BCF126
:1006A000280F05D100F1080C08FA0CF8C2F81480E4
:1006B00091F803C0BCF1480F07D100F1080C4FF0CE
:1006C000010808FA0CF8C2F81080401C0828CED3A4
:1006D0005460BDE8F0814FF6FF7101800221817006
:1006E0000421C17070470246002093680B400BB193
:1006F000012000E0002070470146886880B2704702
:1007000002460020D3680B400BB1012000E000201E
:1007100070470146C86880B2704701617047416107
:1007200070470AB1016100E041617047C1607047E4
:100730004FF480320A4382618161826182698269F9
:10074000704702460020434B18684FF680731840EC
:1007500040EA021008433F4B186070473E49C861A9
:100760007047F0B50A46002300240021002500F060
:100770000046B6F1004F02D1364EF16901E0354E28
:100780007168C0F3034583B200F44016B6F5401F0C
:1007900008D121F070612F4E766826F070662D4FDB
:1007A0007E6012E000F48016B6F5801F06D10326A5
:1007B00006FA05F4A14341F0706106E0460D3601EA
:1007C00003FA06F6B14341F0706122B1460D3601DD
:1007D00003FA06F6314300F00046B6F1004F02D1AD
:1007E0001C4EF16101E01B4E7160F0BD30B500227E
:1007F0008B071C0F0F2303FA04F2164B08338C10DF
:1008000053F824309343134C08348D1044F82530AA
:1008100023468C1053F824308C07240F00FA04F47C
:1008200023430C4C08348D1044F8253030BD0A4960
:10083000DC3108607047000000080140000C0140F6
:10084000001001400014014000180140001C01404C
:10085000002001400000014000002042DF48006805
:1008600040F00100DD49086008464068DC49084066
:10087000DA49486008460068DA490840D749086004
:100880000846006820F4802008600846406820F48C
:10089000FE0048604FF41F0088607047CF49096828
:1008A00021F48031CD4A11601146096821F480217C
:1008B0001160B0F5803F03D0B0F5802F0ED106E077
:1008C000C649096841F48031C44A116007E0C34950
:1008D000096841F4A021C14A116000E000BF00BFD7
:1008E000704710B501460022002300204A11012A5A
:1008F00002D1BA4C236806E0022A02D1B74C236A1F
:1009000001E0B64C636A01F01F02012494401C40D0
:100910000CB1012000E0002010BD38B5002000908F
:100920000024002500BF3120FFF7DBFF05460098BB
:10093000401C00900098B0F5A06F01D0002DF2D0BF
:100940003120FFF7CEFF08B1012400E0002420464B
:1009500038BD01460020A14A106820F0F80040EAA6
:10096000C10010607047A04908607047024600202F
:100970009A4B586820F47C1042EA01031843974BC5
:100980005860704798490866704701460020934AAE
:10099000506820F003000843506070478F4840685B
:1009A00000F00C007047014600208C4A506820F08F
:1009B000F00008435060704701460020874A5068A5
:1009C00020F4E06008435060704701460020834AED
:1009D000506820F4605040EAC1005060704729B16F
:1009E0007E4A527A02437D4B5A7204E07B4A527A25
:1009F00082437A4B5A7270477B49D83108607047FE
:100A000001460020754A506820F440400843506079
:100A100070470021714A20321170704A82F820100C
:100A2000012802D004280AD104E001216B4A2032B7
:100A3000117005E00521694A2032117000E000BF05
:100A400000BF70476949086070476449096A0143FB
:100A5000624A11627047654944390860704730B591
:100A600000210022002400235C4D6D6805F00C017C
:100A700021B1042905D0082923D105E05C4D05608A
:100A800022E05B4D05601FE0544D6D6805F4701267
:100A9000524D6D6805F48034022505EB92421CB975
:100AA000544D554305600BE04C4D6D6805F4003521
:100AB0001DB1504D5543056002E04D4D5543056055
:100AC00002E04B4D056000BF00BF444D6D6805F06E
:100AD000F0010909484D6B5C0568DD4045603F4DFC
:100AE0006D6805F4E061090A434D6B5C4568DD40C3
:100AF00085603A4D6D6805F46051C90A3E4D6B5CE6
:100B00004568DD40C560354D6D6805F44041890B91
:100B10003A4D6B5CC568B5FBF3F5056130BD29B195
:100B20002E4A526902432D4B5A6104E02B4A526906
:100B300082432A4B5A61704729B1284A926902437D
:100B4000264B9A6104E0254A92698243234B9A61BD
:100B5000704729B1214AD2690243204BDA6104E08F
:100B60001E4AD26982431D4BDA61704729B11B4A84
:100B7000D2680243194BDA6004E0184AD268824313
:100B8000164BDA60704729B1144A12690243134BBD
:100B90001A6104E0114A12698243104B1A617047CE
:100BA00012494039086070470F49C86470470B49C3
:100BB000C87170470948406A40F080700749486230
:100BC000704701460020054A92680A400AB1012098
:100BD00000E0002070470149887270470010024011
:100BE0000000FFF8FFFFF6FE000042428004424290
:100BF00000127A0000093D001400002024000020AB
:100C000029B1504A128802434E4B1A8004E04D4AE3
:100C1000128882434B4B1A8070474A48001D008857
:100C200040F010004749091D088070474548001DE5
:100C300000884FF6EF7108404249091D088070474F
:100C4000002140481C300188001F008841EA004014
:100C5000704700B50246FFF7E0FF100C3949183124
:100C60000880091D0A80FFF7E1FF00BD00B50246BC
:100C7000FFF7D3FFC2F30340324908310880091D52
:100C80000A80FFF7D3FF00BD00B50246FFF7C5FF9E
:100C9000100C2C4920310880091D0A80FFF7C6FF7F
:100CA00000BD00202749103109880907080B254994
:100CB000143109880843704700BF2248001D00888E
:100CC00000F020000028F8D070471E48001D008862
:100CD0004FF6F77108401B49091D088000BF1948ED
:100CE000001D008800F008000028F8D07047014679
:100CF0000020144A121D12880A400AB1012000E0A7
:100D0000002070470F49091D098881430D4A121DB3
:100D100011807047014600200A4A121D12880A40BD
:100D2000D0B2084A12880A4012B108B1012000E08E
:100D3000002070470349091D09888143014A121D9B
:100D4000118070470028004010B50446FE488442D8
:100D500008D10121C014FFF709FF0021E014FFF7BB
:100D600005FFC4E0B4F1804F08D101210846FFF728
:100D70000AFF00210120FFF706FFB8E0F348844294
:100D800008D101210220FFF7FEFE00210220FFF71B
:100D9000FAFEACE0EE48844208D101210420FFF7BE
:100DA000F2FE00210420FFF7EEFEA0E0E9488442B5
:100DB00008D101210820FFF7E6FE00210820FFF7F7
:100DC000E2FE94E0E448844208D101211020FFF7BC
:100DD000DAFE00211020FFF7D6FE88E0DF488442CB
:100DE00008D101212020FFF7CEFE00212020FFF7AF
:100DF000CAFE7CE0DA48844208D101214014FFF7A2
:100E0000B5FE00216014FFF7B1FE70E0D5488442C2
:100E100009D10121C804FFF7A9FE00214FF40020E9
:100E2000FFF7A4FE63E0D048844209D10121080500
:100E3000FFF79CFE00214FF48010FFF797FE56E06D
:100E4000CA48844209D101214805FFF78FFE0021DD
:100E50004FF40010FFF78AFE49E0C548844208D1EC
:100E600001214020FFF78FFE00214020FFF78BFE7D
:100E70003DE0C048844208D101218020FFF783FE75
:100E800000218020FFF77FFE31E0BB48844208D17B
:100E900001218015FFF777FE0021A015FFF773FEF3
:100EA00025E0B648844209D101210804FFF75EFE1F
:100EB00000214FF48030FFF759FE18E0B04884421B
:100EC00009D101214804FFF751FE00214FF4003001
:100ED000FFF74CFE0BE0AB48844208D101218804A7
:100EE000FFF744FE00214FF48020FFF73FFE10BDC6
:100EF00000220288944B98420ED0994B98420BD016
:100F0000B0F1804F08D0914B984205D0904B984259
:100F100002D0904B984204D14FF68F731A404B8801
:100F20001A438D4B984207D08C4B984204D04FF611
:100F3000FF431A40CB881A4302808B8883850B8835
:100F40000385814B98420BD0854B984208D08B4B40
:100F5000984205D08A4B984202D08A4B984201D1E0
:100F60000B7A038601238382704770B50024002228
:100F70000023058C4FF6FE7635400584028C83886D
:100F8000048B4FF68F752C40B51E2C400D882C43DA
:100F9000751E2A400D892A434D882A436A4DA8426E
:100FA0000BD06F4DA84208D0744DA84205D0744DA7
:100FB000A84202D0734DA84213D14FF6F7752A40CC
:100FC0004D892A434FF6FB752A408D882A434FF6F8
:100FD000FF652B404FF6FF552B408D892B43CD8964
:100FE0002B4383800483CD888586028470BD70B5D1
:100FF000002400220023058C4FF6EF76354005844F
:10100000028C8388048B48F6FF752C404FF6FF4511
:101010002C400D884FF6FF7606EA05252C434FF647
:10102000DF752A400D8906EA05152A434D8806EA30
:1010300005152A43444DA84202D0494DA8421DD16E
:101040004FF67F752A404D894FF6FF7606EA051563
:101050002A434FF6BF752A408D8806EA05152A43B4
:101060004FF6FF352B404FF2FF752B408D8906EA76
:1010700085052B43CD8906EA85052B4383800483B0
:10108000CD880587028470BD70B50024002200233E
:10109000058C4FF6FF6635400584028C8388848B6F
:1010A0004FF68F752C404FF6FC752C400D882C4365
:1010B0004FF6FF552A400D894FF6FF7606EA0525C3
:1010C0002A434D8806EA05252A431F4DA84202D02F
:1010D000234DA8421DD14FF2FF752A404D894FF68E
:1010E000FF7606EA05252A434FF6FF352A408D880C
:1010F00006EA05252A434EF6FF752B404DF6FF758F
:101100002B408D8906EA05152B43CD8906EA051586
:101110002B4383808483CD888587028470BD70B51E
:10112000002200230024058C4EF6FF76354005840E
:10113000038C8488828B48F6FF752A404FF6FF4562
:101140002A400D8820E00000002C014000040040EF
:1011500000080040000C0040001000400014004057
:1011600000340140004C0140005001400054014057
:1011700000180040001C00400020004000400140DA
:1011800000440140004801404FF6FF7606EA05257D
:101190002A434DF6FF752B400D8906EA05352B4392
:1011A0004D8806EA05352B43FA4DA84202D0FA4D88
:1011B000A84208D14BF6FF752C408D894FF6FF767B
:1011C00006EA85152C4384808283CD88A0F84050A0
:1011D000038470BD828B4FF2FF331A408283828B6F
:1011E0004FF6FF7303EA01231A4382837047F0B579
:1011F0000C461546002200210026078C4EF6FF7C87
:1012000007EA0C070784828B018C4FF6FF7707EA09
:10121000043640F6FF473A404FF6FF7707EA0527C6
:101220003A434FF6FF7707EA03373A43D94FB842BC
:101230000ED0D94FB8420BD0B0F1804F08D0D74F65
:10124000B84205D0D64FB84202D0D64FB84206D1E8
:101250004DF6FF77394046F48057394305E047F6AD
:10126000FF57394044F48057394382830184F0BDED
:10127000828B4FF6F3731A408283828B0A438283F8
:101280007047F0B50C461546002200210026078C59
:101290004FF6FF6C07EA0C070784828B018C4FF630
:1012A000FF7707EA04264FF60C773A404FF6FF77B0
:1012B00007EA03172F433A43B64FB8420ED0B64F52
:1012C000B8420BD0B0F1804F08D0B44FB84205D02F
:1012D000B34FB84202D0B34FB84206D14FF6FF57D2
:1012E000394046F48077394305E04FF2FF573940E3
:1012F00044F48077394382830184F0BD028B4FF23E
:10130000FF331A400283028B4FF6FF7303EA012377
:101310001A4302837047F0B50C461546002200219F
:101320000026078C4FF6EF7C07EA0C070784028B38
:10133000018C4FF6FF7707EA041640F6FF473A4064
:101340004FF6FF7707EA03373A434FF6FF7707EA8E
:1013500005273A438F4FB8420ED08F4FB8420BD07B
:10136000B0F1804F08D08D4FB84205D08C4FB842B5
:1013700002D08C4FB84206D14FF6DF77394046F0A5
:101380001007394305E04FF65F77394044F0100706
:10139000394302830184F0BD028B4FF6F3731A4088
:1013A0000283028B0A4302837047F0B50C46154650
:1013B00000220021068C4FF6FE773E400684028B09
:1013C000018C4FF60C7632407E1C06EA03162E4343
:1013D0003243704EB0420ED06F4EB0420BD0B0F1DF
:1013E000804F08D06D4EB04205D06D4EB04202D055
:1013F0006C4EB04206D14FF6FD76314044F0010606
:10140000314305E04FF6F576314044F001063143B3
:1014100002830184F0BD70B505460C465D488542E7
:101420000ED05D4885420BD0B5F1804F08D05B48A7
:10143000854205D05A48854202D05A48854200D19B
:1014400000E000BF208850B92389A288618828461F
:10145000FFF7ABFFE1882846FFF79EFF25E02088D5
:1014600004280AD12389A28861882846FFF753FF00
:10147000E1882846FFF742FF17E0208808280AD1B4
:101480002389A28861882846FFF7FBFEE188284669
:10149000FFF7EEFE09E02389A28861882846FFF75E
:1014A000A6FEE1882846FFF795FE70BD2DE9F041C4
:1014B00005460C4600260127608808B9022600E090
:1014C0000026A088012801D1022700E001272088FA
:1014D000A0B92389A28861882846FFF766FFE188C2
:1014E0002846FFF759FF23893A4631462846FFF739
:1014F00012FFE1882846FFF701FF13E02389A28845
:1015000061882846FFF707FFE1882846FFF7F6FEC7
:1015100023893A4631462846FFF747FFE1882846A7
:10152000FFF73AFFBDE8F0810A884B881A438B88A1
:101530001A43CB881A430B891A434B891A438B8968
:101540001A43A0F8442070474FF6FF7181800021B4
:101550000180C1804180017270470021018041807B
:101560008180C180018141818181C18170470021D9
:1015700001804180012181800021C180018170476B
:101580000021018041808180C18001814181818170
:1015900070470000002C014000340140000400406E
:1015A00000080040000C004021B1028842F0010216
:1015B000028004E002884FF6FE731A4002807047F2
:1015C00031B1B0F8442042F40042A0F8442005E0D4
:1015D000B0F84420C2F30E02A0F8442070471AB1BC
:1015E00083890B43838102E083898B438381704726
:1015F0008182704741EA0203A0F8483070471AB16F
:1016000083890B43838102E083898B438381704705
:1016100001894FF6F8721140018170470A46002196
:1016200001894FF68F73194011430181704730B51E
:1016300004460D4629462046FFF7F0FF208940F07A
:101640000700208130BD2DE9F04104460D461646C5
:101650001F46602D06D13B46012231462046FFF74A
:101660005AFE05E03B46012231462046FFF79DFE2B
:1016700029462046FFF7D2FF208940F0070020814D
:10168000BDE8F08130B50C4600210189C9B24FF6A2
:10169000FF7505EA0325154325432943018130BD24
:1016A0002DE9F04105460E4617469846002443466C
:1016B0003A4631462846FFF7E5FF2C894FF6F87089
:1016C000044044F007044FF68F70044044F0700467
:1016D0002C81BDE8F081F0B504460D4616461F4644
:1016E0003B46324629462046FFF7CCFF208940F48E
:1016F00080402081F0BD0185828270470A4600212A
:1017000001884FF68F731940114301807047F0B57F
:101710000C4615461E460021002200230189028B3B
:10172000038C4FF6F877394021434FF6FC473A4097
:1017300040F201173A434FF6DD773B404FF6FF7713
:1017400007EA06172F433B43018102830384F0BD60
:101750000A460021018B4FF68F7319401143018314
:1017600070470A460021018B48F6FF7319404FF677
:10177000FF7303EA02231943018370470A460021DD
:10178000818B4FF68F7319401143818370470A464E
:101790000021818B48F6FF7319404FF6FF7303EA6F
:1017A000022319438183704721B1028842F08002ED
:1017B000028004E002884FF67F731A40028070476F
:1017C00021B1828842F00402828004E082884FF6D0
:1017D000FB731A408280704721B1828842F0080270
:1017E000828004E082884FF6F7731A408280704747
:1017F00021B1828842F00102828004E082884FF6A3
:10180000FE731A40828070470A460021018B4FF612
:10181000F77319401143018370470A460021018B79
:101820004FF2FF7319404FF6FF7303EA0223194387
:10183000018370470A460021818B4FF6F7731940E8
:101840001143818370470A460021818B4FF2FF7359
:1018500019404FF6FF7303EA02231943818370474F
:101860000A460021018B4FF6FB7319401143018397
:1018700070470A460021018B4FF6FF3319404FF69F
:10188000FF7303EA02231943018370470A460021CC
:10189000818B4FF6FB7319401143818370470A46D1
:1018A0000021818B4FF6FF3319404FF6FF7303EA97
:1018B00002231943818370470A460021018B4FF6AA
:1018C0007F7319401143018370470A460021018B41
:1018D000C1F30E014FF6FF7303EA0223194301839C
:1018E00070470A460021818B4FF67F7319401143E0
:1018F000818370470A460021818BC1F30E014FF6A8
:10190000FF7303EA02231943818370470A460021CB
:10191000018C4FF6FD7319401143018470470A464C
:101920000021018C4FF6F773194011430184704771
:101930000A460021018C4FF6DF7319404FF6FF7302
:1019400003EA02131943018470470A460021018CFF
:101950004FF67F7319404FF6FF7303EA02131943E2
:10196000018470470A460021018C4FF6FF5319404D
:101970004FF6FF7303EA02231943018470470A46B6
:101980000021018C4FF2FF7319404FF6FF7303EAF9
:1019900002231943018470470A460021018C4DF649
:1019A000FF7319404FF6FF7303EA023319430184B2
:1019B000704730B5002301248C40A3B2048C9C43B3
:1019C0000484048C02FA01F5ADB22C43048430BDCA
:1019D00030B5002304248C40A3B2048C9C430484BF
:1019E000048C02FA01F5ADB22C43048430BD70B50D
:1019F0000346002000241846183001258D40ACB263
:101A00001D8CA5431D8409B1082909D100EB610093
:101A1000056825F0700505600568154305600EE052
:101A20000D1FC5F34E052844056825F4E045056003
:101A300005684FF6FF7606EA02263543056070BD5D
:101A400021B1028842F00202028004E002884FF6CF
:101A5000FD731A400280704721B1028842F00402EF
:101A6000028004E002884FF6FB731A400280704740
:101A700021B1828842F08002828004E082884FF6A1
:101A80007F731A408280704702884FF6F7731A40BE
:101A9000028002880A430280704782884FF68F7363
:101AA0001A40828082880A438280704702894FF6FA
:101AB000F8731A40028102890A4302817047028941
:101AC0004FF67F731A40028102890A4302817047F0
:101AD0008184704781857047818670470187704790
:101AE00081877047A0F84010704702884FF6FF4387
:101AF0001A40028002880A43028070470146888E9D
:101B000070470146088F70470146888F704701462D
:101B1000B1F8400070470146888C70470146088D37
:101B2000704702460020138A0B400BB1012000E0F1
:101B300000207047CA430282704730B50246002039
:101B400000230024158A05EA0103958905EA0104AA
:101B500013B10CB1012000E0002030BDCA43028265
:101B60007047000010B50446FB48844209D10121AA
:101B70008803FEF7FBFF00214FF48040FEF7F6FFDD
:101B800032E0F648844209D101214804FEF7FBFF08
:101B900000214FF40030FEF7F6FF25E0F0488442C4
:101BA00009D101218804FEF7EEFF00214FF48020C7
:101BB000FEF7E9FF18E0EB48844209D10121C8048F
:101BC000FEF7E1FF00214FF40020FEF7DCFF0BE001
:101BD000E548844208D101210805FEF7D4FF002121
:101BE0004FF48010FEF7CFFF10BD2DE9F04786B00F
:101BF00005460E460024A24600BFA1460027B08934
:101C000000B100BF2F462C8A4CF6FF700440F088CC
:101C100004432C82AC894EF6F3100440B08831891D
:101C20000843718908430443AC81AC8A4FF6FF40F6
:101C30000440B0890443AC8201A8FEF710FFC648F7
:101C4000874202D1DDF810A001E0DDF80CA0A889E0
:101C500000F4004040B10AEBCA0000EB0A10316802
:101C60004900B0FBF1F807E00AEBCA0000EB0A10EC
:101C700031688900B0FBF1F86420B8FBF0F0040192
:101C80002009642101FB1089A88900F4004040B1BB
:101C9000322000EBC900B0FBF1F000F00700044374
:101CA00008E0322000EB09106421B0FBF1F000F0F5
:101CB0000F0004432C8106B0BDE8F0874FF41651A5
:101CC000016000218180C18001810C2141810021BE
:101CD0008181704710B502460020108A4FF2FF0341
:101CE00018400B884C8823438C882343CC8823439B
:101CF0001843108210BD0021018041808180C18085
:101D0000704721B1828942F40052828104E08289C5
:101D10004DF6FF731A4082817047F0B503460024E8
:101D200000260025002040F66A17B94200D100BF06
:101D30001846C1F3421401F01F06012707FA06F501
:101D4000012C01D10C3004E0022C01D1103000E054
:101D500014301AB107682F43076002E00768AF43E9
:101D60000760F0BD1AB1838A0B43838202E0838A45
:101D70008B4383827047028A4FF6F0731A400282C7
:101D8000028A0A430282704782894FF2FF731A4027
:101D9000828182890A438281704721B1828942F01F
:101DA0000202828104E082894FF6FD731A4082812B
:101DB0007047028A4FF6DF731A400282028A0A4392
:101DC0000282704721B1028A42F48042028204E01A
:101DD000028A4BF6FF731A4002827047C1F3080271
:101DE0008280704701468888C0F308007047818967
:101DF00041F0010181817047028BD2B20283028BD4
:101E000042EA012202837047028B02F47F4202837E
:101E1000028B0A430283704721B1828A42F020027A
:101E2000828204E0828A4FF6DF731A408282704712
:101E300021B1828A42F01002828204E0828A4FF647
:101E4000EF731A408282704721B1828A42F0080201
:101E5000828204E0828A4FF6F7731A4082827047CA
:101E600021B1828942F40042828103E08289C2F377
:101E70000E028281704721B1828A42F4006282821E
:101E800004E0828A4FF2FF731A4082827047828A8E
:101E90004FF6FB731A408282828A0A43828270471D
:101EA00021B1828A42F00202828204E0828A4FF6E5
:101EB000FD731A408282704702460020B1F5007F10
:101EC00000D100BF13880B400BB1012000E00020BF
:101ED000704701F40072B2F5007F00D100BFCA4321
:101EE0000280704770B502460024002300250020C0
:101EF00040F66A16B14200D100BFC1F3421501F0AD
:101F00001F03012606FA03F3012D02D196893340FF
:101F100006E0022D02D1168A334001E0968A334052
:101F20000C12012606FA04F41688344013B10CB1E1
:101F3000012000E0002070BD10B50022002340F613
:101F40006A14A14200D100BF0A1201249440A3B236
:101F5000DC43048010BD0000003801400044004014
:101F600000480040004C00400050004010B500F018
:101F7000DAFD012800D110BD00221146FF2001F03A
:101F800019F84FF4967000F031FD00F0CCFD0128F7
:101F900000D1F0E700221146104601F00BF84FF493
:101FA000967000F023FD00F0BEFD012800D1E2E7AD
:101FB000FF220021084600F0FDFF4FF4967000F06C
:101FC00015FD00F0B0FD012800D1D4E70022114634
:101FD000104600F0EFFF4FF4967000F007FD00F0A0
:101FE000A2FD012800D1C6E700228021104600F0A2
:101FF000E1FF4FF4967000F0F9FC00F094FD012829
:1020000000D1B8E700221146104600F0D3FF4FF48C
:10201000967000F0EBFC00F086FD012800D1AAE7E5
:1020200000BFA8E710B5012404E0204600F012FE2E
:10203000601CC4B2052CF8DB10BD10B501241FE0F4
:1020400000F071FD012800D11CE0204600F061FE87
:1020500000F069FD012800D114E04FF4967000F003
:10206000C5FC00F060FD012800D10BE0204600F027
:10207000F1FD00F058FD012800D103E0601CC4B25E
:10208000052CDDDB00BF10BD10B50020F049487203
:10209000087048708870C87005208880002088719A
:1020A000C8710872487288720B2001F000FBE9A029
:1020B00002F096F810BD30B585B0EBA002F090F8B4
:1020C000FEF76CFC0446042C03D1ECA002F088F867
:1020D00009E01CB9EFA002F083F804E0082C02D15B
:1020E000F2A002F07DF86846FEF7B9FCF5490098C9
:1020F000B0FBF1F52946F4A002F072F8F14901981D
:10210000B0FBF1F52946F5A002F06AF8ED49029816
:10211000B0FBF1F52946F7A002F062F8E94903980F
:10212000B0FBF1F52946F9A002F05AF8E549049808
:10213000B0FBF1F52946FBA002F052F805B030BD26
:1021400010B5482000F00EFC01F044F900F08EFEBE
:1021500000F010FF00F0A3FD00F094FC092141F60F
:102160001F4000F0B3FC00F043FE00F0ECFF01F074
:1021700055F910BDFEF747F8FFF7E2FFFFF79BFFA9
:10218000FFF782FF46E0002400F0E9FC044604F07B
:10219000200000283BD004F0010020B1EA4800787C
:1021A000C043E9490870E8480078C8B9052000F044
:1021B00036FE00221146104600F0FCFE00BF00F083
:1021C000B2FC012800D10AE0FFF737FF00F0ABFCBA
:1021D000012800D103E0DDA002F002F8EFE716E0ED
:1021E000FFF720FF062000F01AFE00BF00F09BFC66
:1021F000012800D10AE0FFF7B9FE00F094FC0128A5
:1022000000D103E0D8A001F0EBFFEFE700BF01F041
:102210007BF900BFB7E710B5DB48007800F001009C
:10222000F8B1DA48007801281BD0D748407850B977
:1022300000221146104600F0BDFE002084490870BF
:10224000D3A001F0CDFFD0484078012809D18049C2
:10225000087000221146FE2000F0ACFED0A001F074
:10226000BFFFC948007800F00200022856D1C648D6
:10227000407878B900207649087048708870C87036
:10228000C249087000221146104600F093FEC8A013
:1022900001F0A6FFBC484078022812D10120BB49BA
:1022A000087002206A490870FE204870887000207B
:1022B000C8700022FE21084600F07CFEC2A001F09A
:1022C0008FFFB1484078042812D161490870FE2080
:1022D0004870002088704620C8700120AB49087003
:1022E00046220021FE2000F065FEBDA001F078FF2F
:1022F000A5484078062811D155490870EE2048704D
:102300001E208870C8700120A04908701E22114646
:10231000EE2000F04FFEB8A001F062FF9A4800786E
:1023200000F00400042812D19848007801280ED04B
:10233000954880784649487093488178B3A001F069
:102340004FFF434BDA789978587800F033FE8E4887
:10235000007800F00800082812D18C480078012885
:102360000ED08948C0783A4988708748C178AEA0B5
:1023700001F036FF364BDA789978587800F01AFE7B
:102380008148007800F01000102812D17F480078B2
:1023900001280ED07C4800792D49C8707A4801790F
:1023A000A8A001F01DFF2A4BDA789978587800F040
:1023B00001FE7548007800F02000202819D17248ED
:1023C000B0F80500224988806F49B1F8051008B2BD
:1023D00001F04EF904462146A1A001F001FF6A492F
:1023E000B1F8051008B201F043F984B2204600F0BC
:1023F00016FD10BD10B501F087F8154988719F4989
:102400009F4800F074FE9E4909789E4A1278881809
:1024100000EBD071C1F347010D4AD171974909789A
:10242000994A1278881800EBD071C1F34701084A25
:1024300011721046C0790D301146C871904800786D
:10244000904908708D4800788F49087010BD0000D1
:102450006C000020476F6B697420496E6974204FCF
:102460006B202E2E2E0D0A0053797374656D207328
:10247000746172742E2E2E0D0A00000053595343BE
:102480004C4B536F75726365206973204853450D3B
:102490000A000000535953434C4B536F75726365E8
:1024A000206973204853490D0A00000053595343D3
:1024B0004C4B536F7572636520697320504C210D2E
:1024C0000A00000040420F0053595320636C6F63B1
:1024D0006B203D25644D487A200D0A0048434C4B43
:1024E00020636C6F636B203D25644D487A200D0A94
:1024F0000000000050434C4B3120636C6F636B2035
:102500003D25644D487A200D0A00000050434C4B95
:10251000325F636C6F636B203D25644D487A200DFC
:102520000A00000053414443434C4B5F46726571BF
:1025300075656E6379636C6F636B203D25644D48F0
:102540007A200D0A000000003B000020746865201E
:102550004C45442049532052554E4E494E47206F1A
:102560006B210D0A00000000746865204547422673
:102570004D4F544F522049532052554E4E494E47CD
:10258000206F6B210D0A0000340000202D00002078
:102590005365744C45445F4F6666200D0A00000089
:1025A0005365744C45445F4F6E200D0A00000000D7
:1025B0005365744C4544204C45445F436F73746FBE
:1025C0006D200D0A000000005365744C4544204CFA
:1025D00045445F59656C6C6F77200D0A0000000060
:1025E0005365744C4544204C45445F507572706C83
:1025F00065200D0A000000005365744C4544204CD2
:1026000045445F50696E6B200D0A0000573244202C
:10261000436F6E74726F6C204C45445F52203D20B6
:102620002564200D0A00000057324420436F6E7469
:10263000726F6C204C45445F47203D202564200D7F
:102640000A00000057324420436F6E74726F6C2092
:102650004C45445F42203D202564200D0A000000C7
:1026600057324420436F6E74726F6C204D6F746FDD
:1026700072203D202564200D0A000000300000205B
:102680002F000020310000203200002010B500F0A3
:1026900066FA044604F0200070B104F0020058B15C
:1026A00021A001F09DFD012001F061FB26A001F0B9
:1026B00097FD01202A49087004F0800000281BD0F3
:1026C00004F0010038B127A001F08AFD01F00FFBF2
:1026D000052000F0A4FB04F0020068B129A001F07D
:1026E0007FFD00228021104600F064FC022001F0F2
:1026F0003EFB01201A49087010BD10B5044604F0D5
:10270000200020280ED11648007801280AD125A0E3
:1027100001F066FD002012490870002211461046A3
:1027200000F048FC10BD00004B4559322050524586
:102730005353202C4C4544206D6F646520737461A5
:1027400072740D0A0000000028536F667441705FB8
:102750004D6F64652073746172740D0A000000008F
:102760002E0000204B455931205052455353204CE8
:102770004F4E47202C576966692052657365740D6A
:102780000A0000004B455932205052455353204C0B
:102790004F4E47202C4169724C696E6B206D6F64FF
:1027A000650D0A0057324D2D3E576966695F436FCC
:1027B0006E6E436C6F7564730D0A0000704710B540
:1027C000FDF79EFC10BD00BFFEE700BFFEE700BFA7
:1027D000FEE770477047704700204FF0E0218861A6
:1027E000704710B540F225514E48FFF77BFB98B17A
:1027F00040F225514B48FFF79FFB4A48FFF7F2FA9A
:10280000044621464748FFF7E9FA00BF80214548C2
:10281000FFF752FB0028F9D010BD08B5002000904A
:1028200040F225514048FFF75DFB90B140F2255141
:102830003D48FFF781FB3C48FFF7D4FAC0B2009057
:102840003A4801F097FB20B101226946374801F070
:10285000E8FB08BD10B540F225513548FFF742FBB3
:1028600098B140F225513248FFF766FB3048FFF738
:10287000B9FA044621462E48FFF7B0FA00BF80217E
:102880002B48FFF719FB0028F9D010BD10B5012126
:102890002848FFF752F9E8B101212648FFF75EF911
:1028A00025480068401C2449086024480088401CD2
:1028B0002249088022480078401C214908701F489E
:1028C0000088B0F57A7F05DB00201C4908800120D4
:1028D0001C49087010BD10B50120FEF71BFA10B19D
:1028E0000120FEF727FA10BD10B51748006820F048
:1028F00002001549086009E014A001F071FC802174
:102900001748FDF7F0FE8020FDF7F1FD8020FDF770
:10291000DDFD0028F0D10C48006840F002000A49B3
:10292000086010BD003801400044004078000020DD
:102930000048004000040040500000203E000020FD
:10294000440000202C00002004040140496E6672FF
:10295000617265645F455854492E2E2E0D0A0000A1
:10296000000C014010B504466FF00400FDF71BFD9C
:10297000E11704EB5171C1F3C7013F4A11701046D2
:10298000007800EB4001C1EBC0104FF6FF7101EA87
:10299000C0003A49088010BD0146374A12784A43C0
:1029A0004FF0E0235A6100229A6101221A6100BFB0
:1029B0004FF0E022106900F001021AB100F48032F9
:1029C000002AF5D000224FF0E0231A619A61704787
:1029D0002A4A128842434FF0E0235A6100229A614A
:1029E00001221A6100BF1A461169704770B5054689
:1029F0002248008868434FF0E02148610020886148
:102A00000120086100BF4FF0E020046900F08BF85E
:102A100000B106E004F0010018B104F48030002891
:102A2000F1D000BF00204FF0E0210861886170BD47
:102A300070B505461148008868434FF0E0214861B1
:102A4000002088610120086100BF4FF0E020046988
:102A500080210B48FDF747FE00B170BD04F0010076
:102A600018B104F480300028EFD000204FF0E021AE
:102A70000861886100BFF0E74000002042000020AC
:102A8000000C014008B501211C20FEF755F8032079
:102A90008DF8020048208DF803004FF48060ADF8F7
:102AA000000069466248FDF78BFD4FF48070ADF879
:102AB000000069465F48FDF783FD4FF40050ADF814
:102AC000000069465C48FDF77BFD08BD7FB5054603
:102AD0000C4601210220FEF73CF8ADF80850ADF895
:102AE00004400020ADF80A00ADF8060001A95348E3
:102AF000FEF7FEF9012211465048FEF770FD1D2039
:102B00008DF8000000208DF8010002208DF80200F1
:102B100001208DF803006846FDF7FBFB01214748C3
:102B2000FEF742FD7FBD10B500244FF480614048A0
:102B3000FDF7D9FD08B944F001044FF480713D4818
:102B4000FDF7D1FD08B944F002044FF400513A48B2
:102B5000FDF7C9FD08B944F00404204610BD70B566
:102B60000025374800780A2805DB00203449087022
:102B700001203449087033480078012855D10020DD
:102B800030490870FFF7CFFF04462F48007830B176
:102B900001280BD0022819D0032845D13CE024B1EC
:102BA0002A4804700120284908703DE02748007831
:102BB000844207D10220244908702448007840F05C
:102BC000100502E00020204908702DE01F48007821
:102BD00084420AD000201C4908701D4908801B4807
:102BE000007840F02005284670BD184800788442DF
:102BF00011D117480088401C1549088008460088F4
:102C0000642808DB0020088003200F49087044F086
:102C100080052846E8E707E00C480078844202D0A7
:102C200000200949087000BF00BF0020DCE7000059
:102C3000000C014000080140001001400004004069
:102C40004400002045000020460000204A000020EB
:102C50004800002010B50446012C06D0022C0AD0F2
:102C6000032C0ED0042C17D111E04FF400413B4847
:102C7000FDF755FD11E04FF480413848FDF74FFD59
:102C80000BE04FF400613548FDF749FD05E00221F6
:102C90003248FDF744FD00E000BF00BF10BD08B59D
:102CA00001210820FDF748FF03208DF802001020C5
:102CB0008DF8030003208DF802004FF40040ADF8BA
:102CC000000069462548FDF77BFC4FF48040ADF8D5
:102CD000000069462148FDF773FC4FF40060ADF831
:102CE000000069461D48FDF76BFC0220ADF80000AE
:102CF00069461A48FDF764FC0120FFF7ABFF02208C
:102D0000FFF7A8FF0320FFF7A5FF0420FFF7A2FFAE
:102D100008BD10B50446012C06D0022C0AD0032CA5
:102D20000ED0042C17D111E04FF400410B48FDF7F1
:102D3000F4FC11E04FF480410848FDF7EEFC0BE095
:102D40004FF400610548FDF7E8FC05E00221034867
:102D5000FDF7E3FC00E000BF00BF10BD000C014028
:102D600008B501210920FDF7E7FE01210220FDF74A
:102D7000F0FE01213948FDF7F4FC01213848FDF748
:102D8000F0FC3020ADF8000018208DF8030003207F
:102D90008DF8020069463348FDF712FC08BD7FB587
:102DA0004FF4FA752C466020ADF800000120ADF814
:102DB0000200ADF806500020ADF8080069462A4828
:102DC000FEF7D3F808212848FEF71EFD0120ADF8D4
:102DD0000200ADF8064069462348FEF708F90821CD
:102DE0002148FEF71AFD01211F48FEF7DDFB7FBDDC
:102DF00010B5FFF7B5FFFFF7D2FF10BD70B5044661
:102E00000D46092604FB06F081B21748FEF764FE62
:102E100005FB06F081B21448FEF760FE70BD10B5E8
:102E20000446052C04D100210846FFF7E7FF14E013
:102E3000052C07DD04EB84014906080E0021FFF78D
:102E4000DDFF0AE0052C08DAC4F10A0000EB80007F
:102E50004006010E0020FFF7D1FF10BD0002300038
:102E600000081A00000C01400004004008B50121D0
:102E70000420FDF761FE03208DF8020010208DF87C
:102E8000030003208DF802000120ADF80000694620
:102E90005348FDF795FB08BD08B50021009100914E
:102EA00002E00099491C009100998142F9D308BDC4
:102EB00010B54FF480714B48FDF731FC2820FFF727
:102EC000EBFF4FF480714748FDF727FC2820FFF700
:102ED000E3FF10BD10B54FF400714248FDF71FFC31
:102EE000002403E0FFF7E4FF601CC4B2202CF9DBF0
:102EF00010BD01460020CA43C2F38110704770B56F
:102F00000446002512E004F0004028B14FF400719F
:102F10003448FDF702FC04E04FF400713148FDF73E
:102F2000FEFB6400FFF7C4FF681CC5B2202DEADB7E
:102F300070BD2DE9F04107460D461646002444F0C9
:102F400040443046FFF7D5FF44EA00742846FFF7B7
:102F5000D0FF44EA80643846FFF7CBFF44EA0064C0
:102F600044EA064444EA05243C432046FFF7C7FFF1
:102F7000BDE8F08108B501210820FDF7DDFD102036
:102F80008DF803004FF44070ADF8000003208DF879
:102F9000020069461348FDF713FBFFF79BFF002271
:102FA00011461046FFF7C5FF002211461046FFF7F5
:102FB000C0FF08BD70B504460D46164601210848FD
:102FC000FDF7ABFBFFF786FF324629462046FFF7A9
:102FD000B0FF324629462046FFF7ABFF70BD000028
:102FE00000080140000C014008B50820ADF80000C1
:102FF00010208DF8030001208DF802006946614819
:10300000FDF7DEFA0020604908601420FFF7E0FCBD
:1030100001205E49C1F88C011E20FFF7BDFC08BDF0
:1030200038B500240820ADF8000048208DF80300D2
:1030300001208DF8020069465248FDF7C1FA04E00C
:10304000601CC4B20120FFF7A7FC4F48803800681D
:1030500008B1642CF4DB642C01DB012038BD0024B2
:1030600004E0601CC4B20120FFF796FC464880389B
:10307000006808B9642CF4DB642C01DB0120EDE767
:103080000020EBE710B5002404E0601CC4B201206E
:10309000FFF782FC3C488038006808B1642CF4DB00
:1030A000002404E0601CC4B20120FFF775FC364820
:1030B0008038006808B9642CF4DB2820FFF76CFC2A
:1030C00031488038006808B1012010BD0020FCE7BD
:1030D00070B50024002506E06006040EFFF7D2FF5D
:1030E0000443681CC5B2082DF6DB204670BD7CB5D4
:1030F00005460E46FFF778FFFFF792FFF8B9002468
:1031000005E0FFF7E5FF0DF80400601CC4B2052CD4
:10311000F7DB9DF800009DF8011008449DF80210AF
:1031200008449DF8031008449DF80410884208D113
:103130009DF8000030709DF80200287001E0012029
:103140007CBD0020FCE708B501210820FDF7F4FC58
:1031500001210F48FDF705FB0820ADF80000102005
:103160008DF8030003208DF8020069460548FDF73D
:1031700027FA08210348FDF7D0FAFFF735FFFFF7DC
:103180004FFF08BD000C01408C812142008021428C
:103190000002300008B501210420FDF7CDFC01211B
:1031A0000846FDF7C9FC01218803FDF7C5FC4FF473
:1031B0000070ADF8000018208DF8030003208DF892
:1031C000020069468F48FDF7FBF94FF48060ADF8C7
:1031D000000004208DF8030069468A48FDF7F0F9E5
:1031E00001210420FDF7A8FC01214804FDF7B1FCF2
:1031F00001210846FDF7A0FC0420ADF800001820CE
:103200008DF8030003208DF8020069467D48FDF724
:10321000D7F90820ADF8000004208DF803006946B6
:103220007848FDF7CDF901211020FDF785FC01213B
:103230008804FDF78EFC01210846FDF77DFC012185
:103240007148FDF78EFA4FF48060ADF80000182049
:103250008DF8030003208DF8020069466B48FDF7E6
:10326000AFF94FF40060ADF8000004208DF80300C2
:1032700069466648FDF7A4F908BD1FB54FF4E13073
:1032800000900020ADF80400ADF80600ADF808008D
:10329000ADF80C000C20ADF80A0069465C48FEF75A
:1032A000A4FC012240F225515948FEF736FD0121C8
:1032B0005748FEF726FD40215548FEF70AFE4FF419
:1032C000165000900020ADF80400ADF80600ADF8EF
:1032D0000800ADF80C000C20ADF80A0069464D4816
:1032E000FEF783FC012240F225514A48FEF715FD06
:1032F00001214848FEF705FD40214648FEF7E9FD5B
:103300004FF4E13000900020ADF80400ADF8060065
:10331000ADF80800ADF80C000C20ADF80A006946C5
:103320003D48FEF762FC012240F225513A48FEF783
:10333000F4FC01213848FEF7E4FC40213648FEF752
:10334000C8FD1FBD08B525208DF8000000208DF8B0
:1033500001008DF8020001208DF803006846FCF79B
:10336000D8FF26208DF8000000208DF801000120F4
:103370008DF802008DF803006846FCF7CAFF27208D
:103380008DF8000000208DF8010001208DF802006A
:103390008DF803006846FCF7BCFF08BD10B5044675
:1033A00021461C48FEF71AFD00BF80211948FEF790
:1033B00083FD0028F9D010BD10B5044621461448FD
:1033C000FEF70CFD00BF80211148FEF775FD0028B7
:1033D000F9D010BD10B5FFF7DDFEFFF74EFFFFF788
:1033E000B1FF10BD70B504460D46E1B20848FEF7C6
:1033F000F5FC00BF80210648FEF75EFD0028F9D0ED
:10340000204670BD0008014010001400001001406B
:1034100000380140004400400048004008B5012148
:103420000820FDF789FB8020ADF8000048208DF8CA
:10343000030002208DF8020069464548FDF7C0F8F8
:1034400008BD10B580214248FDF74DF900B110BD0F
:1034500000221146FF20FFF7ADFD4FF49670FFF7F5
:10346000E7FA80213A48FDF73EF900B1EFE7002284
:1034700011461046FFF79EFD4FF49670FFF7D8FAFD
:1034800080213348FDF72FF900B1E0E7FF2200214A
:103490000846FFF78FFD4FF49670FFF7C9FA8021B9
:1034A0002B48FDF720F900B1D1E700221146104664
:1034B000FFF780FD4FF49670FFF7BAFA8021244899
:1034C000FDF711F900B1C2E7002280211046FFF795
:1034D00071FD4FF49670FFF7ABFA80211C48FDF7A1
:1034E00002F900B1B3E7002211461046FFF762FD72
:1034F0004FF49670FFF79CFA80211548FDF7F3F81A
:1035000000B1A4E700BFA2E710B580211048FDF785
:10351000EAF858B10FA000F063FE0520FFF77FFC2A
:10352000002211461046FFF745FD10E012A000F002
:1035300057FE0620FFF773FC00BF80210448FDF70B
:10354000D2F800B102E0FFF77CFFF6E700BF10BD44
:10355000000C01404E4F20736F6D65206F626A65ED
:103560006374732061726520636C6F736520746F80
:10357000207573210D0A0000536F6D65206F626A1C
:10358000656374732061726520636C6F736520746A
:103590006F207573210D0A002DE9F04105460E4696
:1035A000174600240CE0285DFFF7F8FE022C05DB2F
:1035B000285DFF2802D15520FFF7F0FE601C84B281
:1035C000B442F0DB012F0DD1FC480068FC490860D3
:1035D000002008710120487132462946F848083019
:1035E00000F06AFDBDE8F08110B5F548407901288A
:1035F00022D1F3480079022817DAF1480068EF4930
:103600000968081AB0F5967F16D9ED48C1880022DE
:103610000830FFF7C1FFE9480068E949086008463B
:103620000079401C0871022010BD4FF48471E448F9
:1036300000F05BFD0120F7E70020F5E770B5E04CF6
:103640000834E04DDE48407901280FD121792879EE
:10365000401E81420AD160796979884206D14FF4CF
:103660008471D74800F041FD002070BD0120FCE7C7
:1036700001B581B0694601AA507808701078487089
:10368000BDF900000CBD10B502460B460AB1002B77
:1036900001DC002010BD0024022103E0505C204426
:1036A000C4B2491C581E8842F8DC2046F2E770B5C7
:1036B0000546C54C802D04DDC4A000F091FD00BF7F
:1036C000FEE7CA4800F032FC8021BF4800F00DFD43
:1036D0004B21C74800F009FDFF20C549087048701C
:1036E0004720FFF7C5FFC2494880022008710846FD
:1036F000C0A10A6882604968C160BEA10A6802610F
:1037000049684161BEA10A6882614968C161BCA182
:103710000A680262496841622022BCA1283000F098
:10372000CBFC0020FFF7A4FFB149A1F84800C04836
:103730000570FF20207060700520FFF799FF608002
:10374000002020716071A0710021E17170BD10B581
:10375000A64800F0F7FB002878D0B648007800288B
:1037600074D10122B449A14800F00FFCB34800789D
:10377000FF280BD1B0480078FF2807D1B049087066
:1037800048700220AF490880012010BDAB48007886
:10379000FF2809D1A8480078552805D1A648007807
:1037A000A64908700120F0E7A3480078A449A54A7B
:1037B00012888854A3480088401CA24908809E486B
:1037C00000789E4908709F480088042806D19C48CC
:1037D000C178807801EB00209B49088099480188D6
:1037E00099480088001D814230D197480288121DF7
:1037F0009349744800F060FC93480078001D7149BB
:1038000081F8000191A000F0EBFC002406E06D4877
:10381000015D92A000F0E4FC601CC4B28A480088FC
:10382000001D8442F3DB8FA000F0DAFC864801889B
:10383000091D834800F059FC01207E4908700020D2
:103840007D4908707D4908709FE7FFE701209CE7EC
:103850003EB505465B4A07CA8DE807000620FFF71C
:1038600007FF80B2ADF8020012208DF804008DF839
:1038700008500A216846FFF706FF8DF8090000226C
:103880000A216846FFF788FE77A000F0A9FC002413
:1038900006E01DF8041071A000F0A2FC601CC4B288
:1038A0000A2CF6D36FA000F09BFC9DF808000128BD
:1038B00004D0022806D003280CD107E06DA000F048
:1038C0008FFC08E074A000F08BFC04E07AA000F00C
:1038D00087FC00E000BF00BF3EBD10B5092239499A
:1038E0007E4800F0E9FB0520FFF7C2FE7B494880D7
:1038F00008460079401C087109217848FFF7C3FE8B
:1039000076490872002209217448FFF745FE2B48CA
:10391000016873A000F064FC002406E06F48015DBC
:103920004EA000F05DFC601C84B2092CF6D34DA0C3
:1039300000F056FC0921694800F0D7FB10BDFFF7E5
:10394000CCFF1E48046800BF1C480068001BB0F58F
:10395000167FF9D966A000F043FC6CA000F040FC93
:10396000012080F3138800BF00BF6D48006800F499
:10397000E0606C490843001D69490860BFF34F8F40
:1039800000BF00BFFEE710B567490E4802680A6035
:1039900042684A6002890A81807A8872FFF79DFF37
:1039A0006248634908606049098908B2FFF760FE10
:1039B00084B220465E490968884710BD5000002047
:1039C000D902002084010020F50300205761726EA7
:1039D000696E672050305F4C656E206F7574206F84
:1039E000662072616E67650D0A0000007800002095
:1039F000850200203030303030303034000000009C
:103A00003030303030303031000000003666333036
:103A10003734666534333839343534376134663198
:103A20003331346264376533616530620000000011
:103A30004D0000205D000020630000206200002097
:103A400075040020600000205E000020474167658B
:103A50006E74546F4D43553A200000002532782093
:103A6000000000000D0A0000204D435520203A20A0
:103A700000000000573244204572726F7220436F7D
:103A80006D6D616E64202D3E4572726F725F416391
:103A90006B53756D0D0A0000573244204572726FEA
:103AA0007220436F6D6D616E64202D3E4572726FA2
:103AB000725F436D640D0A00573244204572726F85
:103AC0007220436F6D6D616E64202D3E4572726F82
:103AD000725F4F746865720D0A000000D00200200A
:103AE0005B25645D204D43552020203A20000000D6
:103AF0005732445F526571756573745265736574AE
:103B00004465766963652E2E2E0D0A004D435520BF
:103B1000526573746172742E2E2E0D0A000000001F
:103B20000CED00E00000FA05EA030020FB26000887
:103B30006400002070B5F14CF148016821604068D4
:103B4000606004202071EF490978881DFFF790FD1F
:103B5000608003202072EB48007800F10A012046C3
:103B6000FFF791FDE7490978093122465054E548AD
:103B7000007800F10A0100222046FFF70DFDE2481F
:103B80000168AFF2A40000F02BFB002506E0615DA8
:103B9000AFF2381000F024FB681C85B2D9480078D9
:103BA0000A30A842F3D8AFF2441000F019FB70BD00
:103BB00010B5FFF7BFFF10BD10B50922D049D3489B
:103BC00000F07AFAD1484079D14948714B21D04868
:103BD000FFF759FDCE4981F84A0000224B21CC481D
:103BE000FFF7DAFCC8480168AFF20C1000F0F8FAF1
:103BF000002407E0C648015DAFF2A01000F0F0FA23
:103C0000601C84B24B2CF5D3AFF2A81000F0E8FA98
:103C100010BD2DE9F04105460C4600270026FFF7B0
:103C200096FD00BFFFF7E0FCBA48007800285CD0A2
:103C3000B34890F80011FFF726FDB14991F8001143
:103C4000491EAF4A515C884208D00120FFF700FEB0
:103C50000020B04908700120BDE8F081FFF7EEFCBC
:103C60000746A74E3079122832D2DFE800F031093A
:103C7000310C31312526313129312A2B312E313089
:103C8000FFF79AFF28E09E48007A012802D0022818
:103C90000FD10BE0FFF721FE224699490931284652
:103CA00000F00AFA01209C49087003E0FFF780FF4A
:103CB00000E000BF00BF0FE00EE0FFF70EFE0BE0DC
:103CC0000AE009E0FFF75FFE06E0FFF738FE03E0D9
:103CD0000220FFF7BDFD00BF00BF894890F800112A
:103CE00000F003FA00208B4908700120B4E73EB5CC
:103CF000FF208DF800008DF801000520FFF7B8FCCB
:103D000080B2ADF802000B208DF8040083480078E3
:103D10008DF8050081480078401C8049087000201B
:103D20008DF8060000218DF8071009216846FFF77D
:103D3000AAFC8DF80800012209216846FFF72CFC37
:103D400071480168AFF2682000F04AFA002407E0E9
:103D50001DF80410AFF2FC2000F042FA601C84B29F
:103D6000092CF5D3AFF2043000F03AFA3EBD3EB56F
:103D70000546FF208DF800008DF801000620FFF7B2
:103D800077FC80B2ADF8020009208DF8040063488A
:103D900000788DF8050061480078401C5F49087084
:103DA00000208DF8060000218DF807108DF80850CE
:103DB0000A216846FFF767FC8DF8090001220A21F5
:103DC0006846FFF7E9FB50480168AFF2EC2000F0CD
:103DD00007FA002407E01DF80410AFF2803000F06D
:103DE000FFF9601C84B20A2CF5D3AFF2883000F0E2
:103DF000F7F93EBD2DE9F04706460F4690464FF0D5
:103E000000093E4C46484079012801D1BDE8F087C1
:103E1000B8F1010F02D14FF001091FE03A480068E4
:103E200040490968401AB0F5FA6F09D93548027857
:103E300031463248093000F063F908B14FF001090A
:103E40003148006838490968401AB84205D94FF02E
:103E500001092D4800683449086000BFB9F1010F1D
:103E600049D12848027831462448093000F024F925
:103E700024490978881DFFF7FBFB6080052020712D
:103E800026480078607125480078401C2349087056
:103E9000042020721B48007800F10A011748FFF740
:103EA000F2FB184909780931144A50541548007832
:103EB00000F10A0101222046FFF76EFB124800685C
:103EC0001849086010480168AFF2EC3000F088F93A
:103ED000002507E00948415DAFF2804000F080F91D
:103EE000681C85B2074800780A30A842F2D8AFF2C1
:103EF0008C4000F075F900BF88E70000F503002052
:103F0000840100204D00002050000020D00200203D
:103F1000850200205D000020330000204C000020BE
:103F2000D902002054000020580000204FF4807176
:103F3000016000F10C0141608160704770470146EB
:103F40000868704700B50246D2E90101884201D1F4
:103F5000002000BDD2E90101884203D2D2E901105C
:103F6000401AF6E71046FFF7EAFFD2E90113C91A33
:103F7000401AEEE730B504462046FFF7E0FF05465D
:103F80002046FFF7DFFF281A30BD2DE9F041044637
:103F90000F461546D4E90101884215D22046FFF7A5
:103FA000D1FFA84201D9284602E02046FFF7CAFF08
:103FB000064632463846616800F07EF86068304454
:103FC00060603046BDE8F0812046FFF7B8FF04F19D
:103FD0000C016268511A401AA8420AD92E4632468C
:103FE0003846616800F068F86068304460603046C8
:103FF000E8E72046FFF7A3FF04F10C016268511ABD
:10400000461A32463846616800F056F804F10C0052
:104010006060AA1BB9192046FFF7B7FF0644304677
:10402000D0E72DE9F04104460F4615462046FFF73C
:10403000A1FFA84203D84FF0FF30BDE8F081D4E9DA
:10404000010188422ED82046FFF779FF04F10C01C8
:10405000A268511A461AB54215D82A463946A068B0
:1040600000F02AF8A0682844A0602046FFF767FF08
:1040700004F10C010844A168884202D104F10C004B
:10408000A0602846D9E732463946A06800F014F807
:1040900004F10C00A060AA1BB9192046FFF7C1FF6C
:1040A0003044CAE72A463946A06800F005F8A068FF
:1040B0002844A0602846C0E740EA01039B0703D0DC
:1040C00009E008C9121F08C0042AFAD203E011F857
:1040D000013B00F8013B521EF9D27047D2B201E019
:1040E00000F8012B491EFBD270470022F6E710B5FD
:1040F00013460A4604461946FFF7F0FF204610BD56
:1041000030B504460020034600E05B1C934203D216
:10411000E05CCD5C401BF8D030BD2DE9F05F05467A
:10412000002092469B4688460646814640241BE076
:10413000284641464746224600F041F853465A4633
:10414000C01A914110D311461846224600F028F8B3
:104150002D1A67EB01084F4622460120002100F08E
:104160001FF817EB00094E41201EA4F10104DFDC0B
:10417000484631462A464346BDE8F09F064C074D67
:1041800006E0E06840F0010394E807009847103427
:10419000AC42F6D3FBF7AEFF84460008A446000805
:1041A000202A04DB203A00FA02F1002070479140F7
:1041B000C2F1200320FA03F3194390407047202AEC
:1041C00004DB203A21FA02F00021704721FA02F3C1
:1041D000D040C2F1200291400843194670470000C8
:1041E0000FB4054B10B503A9044A029800F018F863
:1041F00010BC5DF814FB0000E533000868000020E7
:1042000002E008C8121F08C1002AFAD1704770479F
:10421000002001E001C1121F002AFBD170470000FD
:104220002DE9FF4F8DB00F460546002606E02528F4
:104230000BD0DDE90F1290476D1C761C2878002802
:10424000F5D111B03046BDE8F08F0024A246A1465A
:104250000122EC4900E0044315F8013F203B02FA3B
:1042600003F00842F7D128782A2810D06FF02F02E7
:104270002878A0F13001092914D80AEB8A0102EB51
:10428000410144F0020400EB010A6D1CF0E701CF8C
:104290005FEA000A03D544F40054CAF1000A44F06E
:1042A00002046D1C28782E2817D115F8010F44F050
:1042B00004042A280ED06FF02F022878A0F13001D4
:1042C00009290AD809EB890102EB410100EB010938
:1042D0006D1CF2E757F8049B6D1C28786C280FD0F2
:1042E00006DC4C2817D068280DD06A2814D104E0C9
:1042F000742810D07A280FD10DE044F400140AE09D
:1043000044F4801401E044F440146978814202D1FD
:1043100004F580146D1C6D1C2A786E2A1FD00CDCED
:10432000632A31D004DC002A8BD0582A11D1A3E0B3
:10433000642A68D0692A0CD165E0732A2ED004DC87
:104340006F2A73D0702A04D19BE0752A6FD0782A27
:104350006ED01046DDE90F129047761C50E1C4F391
:104360000250022806D0032809D0042801CF09D022
:10437000066045E101CFF117C0E9006140E101CFDE
:1043800006803DE106703BE117F8040B8DF8000054
:1043900000208DF80100EB46012003E057F804BB34
:1043A0004FF0FF3061074FF0000102D40DE008F13B
:1043B0000101884649450FDA8045F8DB1BF80810F3
:1043C0000029F4D108E008F1010188468142FADBB6
:1043D0001BF808100029F6D1DDE90F23AAEB08002D
:1043E0008146214600F036F9304400EB080604E02F
:1043F000DDE90F121BF8010B9047B8F10108F7D265
:1044000021464846F7E00A21C4F302534FF0000B5F
:104410000891022B04D001CFC117032B09D00AE069
:10442000FF1D27F00707F7E8020108E032E01FE070
:1044300020E000B2C117042B01D140B2C117031E06
:1044400071F1000307DA4FF0000CD0EB0C006CEBBD
:1044500001012D2302E0230504D52B238DF8243000
:10446000012303E0E30701D02023F7E7984658E053
:104470000A2110E010210EE010204FF0000B0890F0
:104480000CE010214FF0000B44F004044FF0080939
:10449000089103E008214FF0000B0891C4F3025388
:1044A000022B04D001CF0021032B06D006E0FF1D14
:1044B00027F00707F7E8020103E080B2042B00D1E0
:1044C000C0B24FF0000823072BD5702A07D0DDF8C3
:1044D00020C08CF0100C5CEA0B0C05D00EE04023E1
:1044E0008DF82430012308E050EA010306D0302380
:1044F0008DF824308DF8252002239846DDF820C061
:104500008CF0080C5CEA0B0C0BD150EA010301D1D2
:10451000630706D530238DF824304FF00108A9F148
:104520000109582A04D038A20B9208AA0A920BE07B
:104530003AA2F9E75B46089AFFF7EFFD0B9B9B5CFD
:104540000A9A521E0A92137050EA0102F2D10A9896
:10455000ADEB000000F1200B600702D524F480349D
:1045600001E04FF00109D94502DDA9EB0B0000E0A5
:10457000002000EB0B0141440890AAEB010AE00384
:1045800006D4DDE90F232146504600F063F80644C7
:104590004FF0000908E009A911F80900DDE90F1240
:1045A000904709F10109761CC145F4DBE0030CD505
:1045B000DDE90F232146504600F04CF8064404E0A4
:1045C000DDE90F1230209047761C0899481E0890AC
:1045D0000029F5DC08E00A980A990078491C0A913C
:1045E000DDE90F129047761CBBF10001ABF1010B26
:1045F000F1DC21465046DDE90F2300F019F80644AE
:104600006D1C1BE609280100303132333435363752
:10461000383961626364656600000000303132330E
:1046200034353637383941424344454600000000AE
:104630002DE9F041044600251E461746880404D49F
:1046400005E039462020B0476D1C641EF9D5284688
:10465000BDE8F0812DE9F041044600251E46904654
:10466000C80301D5302700E02027880404D505E0E1
:1046700041463846B0476D1C641EF9D52846BDE852
:10468000F0810000A4460008000000206C0000003B
:1046900000420008104700086C0000200C090000D0
:1046A0001042000800A24A040000000000000000C0
:1046B00001020304060708090000000001020304C8
:1046C00001020304060708090204060800000000AE
:1046D00000000000000000000000000000000000DA
:1046E00000000000000000000000000000000000CA
:1046F00000000000000000000000000000000000BA
:1047000000000000000000000000000000000000A9
:0400000508000105E9
:00000001FF
